{
  "_format": "hh-sol-artifact-1",
  "contractName": "Todolist",
  "sourceName": "contracts/Todolist.sol",
  "abi": [
    {
      "inputs": [
        {
          "internalType": "string",
          "name": "_name",
          "type": "string"
        }
      ],
      "name": "addTask",
      "outputs": [],
      "stateMutability": "nonpayable",
      "type": "function"
    },
    {
      "inputs": [
        {
          "internalType": "uint256",
          "name": "_index",
          "type": "uint256"
        }
      ],
      "name": "deleteTask",
      "outputs": [],
      "stateMutability": "nonpayable",
      "type": "function"
    },
    {
      "inputs": [],
      "name": "getTasks",
      "outputs": [
        {
          "components": [
            {
              "internalType": "string",
              "name": "name",
              "type": "string"
            },
            {
              "internalType": "bool",
              "name": "status",
              "type": "bool"
            },
            {
              "internalType": "uint256",
              "name": "timestamp",
              "type": "uint256"
            }
          ],
          "internalType": "struct Todolist.Task[]",
          "name": "",
          "type": "tuple[]"
        }
      ],
      "stateMutability": "view",
      "type": "function"
    },
    {
      "inputs": [
        {
          "internalType": "uint256",
          "name": "_index",
          "type": "uint256"
        }
      ],
      "name": "updateStatus",
      "outputs": [],
      "stateMutability": "nonpayable",
      "type": "function"
    }
  ],
  "bytecode": "0x608060405234801561001057600080fd5b50610b2d806100206000396000f3fe608060405234801561001057600080fd5b506004361061004c5760003560e01c806304a87e3814610051578063560f31921461006f578063672385621461008b578063d61e7201146100a7575b600080fd5b6100596100c3565b6040516100669190610889565b60405180910390f35b610089600480360381019061008491906108e1565b610313565b005b6100a560048036038101906100a09190610973565b6103a3565b005b6100c160048036038101906100bc91906108e1565b6104b9565b005b606060008060003373ffffffffffffffffffffffffffffffffffffffff1673ffffffffffffffffffffffffffffffffffffffff1681526020019081526020016000208054905067ffffffffffffffff811115610122576101216109c0565b5b60405190808252806020026020018201604052801561015b57816020015b6101486105a4565b8152602001906001900390816101405790505b5090506000805b6000803373ffffffffffffffffffffffffffffffffffffffff1673ffffffffffffffffffffffffffffffffffffffff1681526020019081526020016000208054905081101561030a576000803373ffffffffffffffffffffffffffffffffffffffff1673ffffffffffffffffffffffffffffffffffffffff16815260200190815260200160002081815481106101fb576101fa6109ef565b5b906000526020600020906003020160405180606001604052908160008201805461022490610a4d565b80601f016020809104026020016040519081016040528092919081815260200182805461025090610a4d565b801561029d5780601f106102725761010080835404028352916020019161029d565b820191906000526020600020905b81548152906001019060200180831161028057829003601f168201915b505050505081526020016001820160009054906101000a900460ff161515151581526020016002820154815250508383815181106102de576102dd6109ef565b5b602002602001018190525081806102f490610aae565b925050808061030290610aae565b915050610162565b50819250505090565b6000803373ffffffffffffffffffffffffffffffffffffffff1673ffffffffffffffffffffffffffffffffffffffff1681526020019081526020016000208181548110610363576103626109ef565b5b90600052602060002090600302016000808201600061038291906105c7565b6001820160006101000a81549060ff02191690556002820160009055505050565b6000803373ffffffffffffffffffffffffffffffffffffffff1673ffffffffffffffffffffffffffffffffffffffff168152602001908152602001600020604051806060016040528084848080601f016020809104026020016040519081016040528093929190818152602001838380828437600081840152601f19601f8201169050808301925050505050505081526020016000151581526020014281525090806001815401808255809150506001900390600052602060002090600302016000909190919091506000820151816000019080519060200190610488929190610607565b5060208201518160010160006101000a81548160ff0219169083151502179055506040820151816002015550505050565b6000803373ffffffffffffffffffffffffffffffffffffffff1673ffffffffffffffffffffffffffffffffffffffff1681526020019081526020016000208181548110610509576105086109ef565b5b906000526020600020906003020160010160009054906101000a900460ff16156000803373ffffffffffffffffffffffffffffffffffffffff1673ffffffffffffffffffffffffffffffffffffffff1681526020019081526020016000208281548110610579576105786109ef565b5b906000526020600020906003020160010160006101000a81548160ff02191690831515021790555050565b604051806060016040528060608152602001600015158152602001600081525090565b5080546105d390610a4d565b6000825580601f106105e55750610604565b601f016020900490600052602060002090810190610603919061068d565b5b50565b82805461061390610a4d565b90600052602060002090601f016020900481019282610635576000855561067c565b82601f1061064e57805160ff191683800117855561067c565b8280016001018555821561067c579182015b8281111561067b578251825591602001919060010190610660565b5b509050610689919061068d565b5090565b5b808211156106a657600081600090555060010161068e565b5090565b600081519050919050565b600082825260208201905092915050565b6000819050602082019050919050565b600081519050919050565b600082825260208201905092915050565b60005b838110156107105780820151818401526020810190506106f5565b8381111561071f576000848401525b50505050565b6000601f19601f8301169050919050565b6000610741826106d6565b61074b81856106e1565b935061075b8185602086016106f2565b61076481610725565b840191505092915050565b60008115159050919050565b6107848161076f565b82525050565b6000819050919050565b61079d8161078a565b82525050565b600060608301600083015184820360008601526107c08282610736565b91505060208301516107d5602086018261077b565b5060408301516107e86040860182610794565b508091505092915050565b60006107ff83836107a3565b905092915050565b6000602082019050919050565b600061081f826106aa565b61082981856106b5565b93508360208202850161083b856106c6565b8060005b85811015610877578484038952815161085885826107f3565b945061086383610807565b925060208a0199505060018101905061083f565b50829750879550505050505092915050565b600060208201905081810360008301526108a38184610814565b905092915050565b600080fd5b600080fd5b6108be8161078a565b81146108c957600080fd5b50565b6000813590506108db816108b5565b92915050565b6000602082840312156108f7576108f66108ab565b5b6000610905848285016108cc565b91505092915050565b600080fd5b600080fd5b600080fd5b60008083601f8401126109335761093261090e565b5b8235905067ffffffffffffffff8111156109505761094f610913565b5b60208301915083600182028301111561096c5761096b610918565b5b9250929050565b6000806020838503121561098a576109896108ab565b5b600083013567ffffffffffffffff8111156109a8576109a76108b0565b5b6109b48582860161091d565b92509250509250929050565b7f4e487b7100000000000000000000000000000000000000000000000000000000600052604160045260246000fd5b7f4e487b7100000000000000000000000000000000000000000000000000000000600052603260045260246000fd5b7f4e487b7100000000000000000000000000000000000000000000000000000000600052602260045260246000fd5b60006002820490506001821680610a6557607f821691505b60208210811415610a7957610a78610a1e565b5b50919050565b7f4e487b7100000000000000000000000000000000000000000000000000000000600052601160045260246000fd5b6000610ab98261078a565b91507fffffffffffffffffffffffffffffffffffffffffffffffffffffffffffffffff821415610aec57610aeb610a7f565b5b60018201905091905056fea26469706673582212205a443b00e0bd60a5d1e301e7d5267ad5f0f19c0f588824fa8d286bddcc73a25364736f6c63430008090033",
  "linkReferences": {},
  "deployedLinkReferences": {}
}